{
  "_format": "hh-sol-artifact-1",
  "contractName": "Marketplace",
  "sourceName": "contracts/Marketplace.sol",
  "abi": [
    {
      "inputs": [
        {
          "internalType": "uint256",
          "name": "_fee",
          "type": "uint256"
        }
      ],
      "stateMutability": "nonpayable",
      "type": "constructor"
    },
    {
      "anonymous": false,
      "inputs": [
        {
          "indexed": false,
          "internalType": "address",
          "name": "item",
          "type": "address"
        },
        {
          "indexed": false,
          "internalType": "address",
          "name": "buyer",
          "type": "address"
        },
        {
          "indexed": false,
          "internalType": "address",
          "name": "seller",
          "type": "address"
        },
        {
          "indexed": false,
          "internalType": "uint256",
          "name": "price",
          "type": "uint256"
        }
      ],
      "name": "ItemSold",
      "type": "event"
    },
    {
      "inputs": [],
      "name": "currentNft",
      "outputs": [
        {
          "internalType": "uint256",
          "name": "",
          "type": "uint256"
        }
      ],
      "stateMutability": "view",
      "type": "function"
    },
    {
      "inputs": [],
      "name": "fee",
      "outputs": [
        {
          "internalType": "uint256",
          "name": "",
          "type": "uint256"
        }
      ],
      "stateMutability": "view",
      "type": "function"
    },
    {
      "inputs": [
        {
          "internalType": "address",
          "name": "nft",
          "type": "address"
        },
        {
          "internalType": "uint256",
          "name": "tokenId",
          "type": "uint256"
        },
        {
          "internalType": "uint256",
          "name": "price",
          "type": "uint256"
        }
      ],
      "name": "listItem",
      "outputs": [],
      "stateMutability": "nonpayable",
      "type": "function"
    },
    {
      "inputs": [
        {
          "internalType": "uint256",
          "name": "",
          "type": "uint256"
        }
      ],
      "name": "nftCollection",
      "outputs": [
        {
          "internalType": "uint256",
          "name": "itemId",
          "type": "uint256"
        },
        {
          "internalType": "uint256",
          "name": "tokenId",
          "type": "uint256"
        },
        {
          "internalType": "address",
          "name": "seller",
          "type": "address"
        },
        {
          "internalType": "address",
          "name": "owner",
          "type": "address"
        },
        {
          "internalType": "address",
          "name": "nft",
          "type": "address"
        },
        {
          "internalType": "uint256",
          "name": "price",
          "type": "uint256"
        },
        {
          "internalType": "bool",
          "name": "isSold",
          "type": "bool"
        }
      ],
      "stateMutability": "view",
      "type": "function"
    },
    {
      "inputs": [],
      "name": "owner",
      "outputs": [
        {
          "internalType": "address",
          "name": "",
          "type": "address"
        }
      ],
      "stateMutability": "view",
      "type": "function"
    },
    {
      "inputs": [
        {
          "internalType": "uint256",
          "name": "itemId",
          "type": "uint256"
        }
      ],
      "name": "purchase",
      "outputs": [],
      "stateMutability": "payable",
      "type": "function"
    }
  ],
  "bytecode": "0x60c060405234801561001057600080fd5b50604051610f48380380610f48833981810160405281019061003291906100af565b80608081815250503373ffffffffffffffffffffffffffffffffffffffff1660a08173ffffffffffffffffffffffffffffffffffffffff1681525050506100dc565b600080fd5b6000819050919050565b61008c81610079565b811461009757600080fd5b50565b6000815190506100a981610083565b92915050565b6000602082840312156100c5576100c4610074565b5b60006100d38482850161009a565b91505092915050565b60805160a051610e4761010160003960006104ff015260006105230152610e476000f3fe6080604052600436106100555760003560e01c80632ae81e351461005a5780637c711b271461008557806389bfd38f146100c85780638da5cb5b146100f1578063ddca3f431461011c578063efef39a114610147575b600080fd5b34801561006657600080fd5b5061006f610163565b60405161007c9190610948565b60405180910390f35b34801561009157600080fd5b506100ac60048036038101906100a79190610994565b610169565b6040516100bf9796959493929190610a1d565b60405180910390f35b3480156100d457600080fd5b506100ef60048036038101906100ea9190610ab8565b610218565b005b3480156100fd57600080fd5b506101066104fd565b6040516101139190610b0b565b60405180910390f35b34801561012857600080fd5b50610131610521565b60405161013e9190610948565b60405180910390f35b610161600480360381019061015c9190610994565b610545565b005b60015481565b60006020528060005260406000206000915090508060000154908060010154908060020160009054906101000a900473ffffffffffffffffffffffffffffffffffffffff16908060030160009054906101000a900473ffffffffffffffffffffffffffffffffffffffff16908060040160009054906101000a900473ffffffffffffffffffffffffffffffffffffffff16908060050154908060060160009054906101000a900460ff16905087565b6000811161025b576040517f08c379a000000000000000000000000000000000000000000000000000000000815260040161025290610b83565b60405180910390fd5b3073ffffffffffffffffffffffffffffffffffffffff168373ffffffffffffffffffffffffffffffffffffffff1663081812fc846040518263ffffffff1660e01b81526004016102ab9190610948565b602060405180830381865afa1580156102c8573d6000803e3d6000fd5b505050506040513d601f19601f820116820180604052508101906102ec9190610bb8565b73ffffffffffffffffffffffffffffffffffffffff1614610342576040517f08c379a000000000000000000000000000000000000000000000000000000000815260040161033990610c31565b60405180910390fd5b6001600081548092919060010191905055506040518060e0016040528060015481526020018381526020013373ffffffffffffffffffffffffffffffffffffffff1681526020013373ffffffffffffffffffffffffffffffffffffffff1681526020018473ffffffffffffffffffffffffffffffffffffffff168152602001828152602001600015158152506000806001548152602001908152602001600020600082015181600001556020820151816001015560408201518160020160006101000a81548173ffffffffffffffffffffffffffffffffffffffff021916908373ffffffffffffffffffffffffffffffffffffffff16021790555060608201518160030160006101000a81548173ffffffffffffffffffffffffffffffffffffffff021916908373ffffffffffffffffffffffffffffffffffffffff16021790555060808201518160040160006101000a81548173ffffffffffffffffffffffffffffffffffffffff021916908373ffffffffffffffffffffffffffffffffffffffff16021790555060a0820151816005015560c08201518160060160006101000a81548160ff021916908315150217905550905050505050565b7f000000000000000000000000000000000000000000000000000000000000000081565b7f000000000000000000000000000000000000000000000000000000000000000081565b60008060008381526020019081526020016000209050600073ffffffffffffffffffffffffffffffffffffffff168160040160009054906101000a900473ffffffffffffffffffffffffffffffffffffffff1673ffffffffffffffffffffffffffffffffffffffff16036105ee576040517f08c379a00000000000000000000000000000000000000000000000000000000081526004016105e590610c9d565b60405180910390fd5b3481600501541115610635576040517f08c379a000000000000000000000000000000000000000000000000000000000815260040161062c90610d09565b60405180910390fd5b600015158160060160009054906101000a900460ff1615151461068d576040517f08c379a000000000000000000000000000000000000000000000000000000000815260040161068490610d75565b60405180910390fd5b8060040160009054906101000a900473ffffffffffffffffffffffffffffffffffffffff1673ffffffffffffffffffffffffffffffffffffffff166323b872dd8260020160009054906101000a900473ffffffffffffffffffffffffffffffffffffffff163384600101546040518463ffffffff1660e01b815260040161071693929190610d95565b600060405180830381600087803b15801561073057600080fd5b505af1158015610744573d6000803e3d6000fd5b5050505060018160060160006101000a81548160ff0219169083151502179055508060030160009054906101000a900473ffffffffffffffffffffffffffffffffffffffff168160020160006101000a81548173ffffffffffffffffffffffffffffffffffffffff021916908373ffffffffffffffffffffffffffffffffffffffff160217905550338160030160006101000a81548173ffffffffffffffffffffffffffffffffffffffff021916908373ffffffffffffffffffffffffffffffffffffffff1602179055508060020160009054906101000a900473ffffffffffffffffffffffffffffffffffffffff1673ffffffffffffffffffffffffffffffffffffffff166108fc82600501549081150290604051600060405180830381858888f1935050505015801561087d573d6000803e3d6000fd5b507f94784a3562c6a29b14faeace426c80b0d497d2cf0a82a2fe71adbab000546d008160040160009054906101000a900473ffffffffffffffffffffffffffffffffffffffff168260030160009054906101000a900473ffffffffffffffffffffffffffffffffffffffff168360020160009054906101000a900473ffffffffffffffffffffffffffffffffffffffff1684600501546040516109239493929190610dcc565b60405180910390a15050565b6000819050919050565b6109428161092f565b82525050565b600060208201905061095d6000830184610939565b92915050565b600080fd5b6109718161092f565b811461097c57600080fd5b50565b60008135905061098e81610968565b92915050565b6000602082840312156109aa576109a9610963565b5b60006109b88482850161097f565b91505092915050565b600073ffffffffffffffffffffffffffffffffffffffff82169050919050565b60006109ec826109c1565b9050919050565b6109fc816109e1565b82525050565b60008115159050919050565b610a1781610a02565b82525050565b600060e082019050610a32600083018a610939565b610a3f6020830189610939565b610a4c60408301886109f3565b610a5960608301876109f3565b610a6660808301866109f3565b610a7360a0830185610939565b610a8060c0830184610a0e565b98975050505050505050565b610a95816109e1565b8114610aa057600080fd5b50565b600081359050610ab281610a8c565b92915050565b600080600060608486031215610ad157610ad0610963565b5b6000610adf86828701610aa3565b9350506020610af08682870161097f565b9250506040610b018682870161097f565b9150509250925092565b6000602082019050610b2060008301846109f3565b92915050565b600082825260208201905092915050565b7f73686f6c642067726561746572207468656e2030000000000000000000000000600082015250565b6000610b6d601483610b26565b9150610b7882610b37565b602082019050919050565b60006020820190508181036000830152610b9c81610b60565b9050919050565b600081519050610bb281610a8c565b92915050565b600060208284031215610bce57610bcd610963565b5b6000610bdc84828501610ba3565b91505092915050565b7f46697273742073656e6420746865204e465420746f20436f6e74726163742e00600082015250565b6000610c1b601f83610b26565b9150610c2682610be5565b602082019050919050565b60006020820190508181036000830152610c4a81610c0e565b9050919050565b7f54686973206974656d206e6f7420657869737473000000000000000000000000600082015250565b6000610c87601483610b26565b9150610c9282610c51565b602082019050919050565b60006020820190508181036000830152610cb681610c7a565b9050919050565b7f4e6f7420656e6f75676820616d6f756e7420746f207075726368617365000000600082015250565b6000610cf3601d83610b26565b9150610cfe82610cbd565b602082019050919050565b60006020820190508181036000830152610d2281610ce6565b9050919050565b7f54686973206974656d20697320616c726561647920736f6c6400000000000000600082015250565b6000610d5f601983610b26565b9150610d6a82610d29565b602082019050919050565b60006020820190508181036000830152610d8e81610d52565b9050919050565b6000606082019050610daa60008301866109f3565b610db760208301856109f3565b610dc46040830184610939565b949350505050565b6000608082019050610de160008301876109f3565b610dee60208301866109f3565b610dfb60408301856109f3565b610e086060830184610939565b9594505050505056fea2646970667358221220ef3c77b8603c6bdd01b1720546b2515f84b35fe2b0f6e5d20b926fcd88a8321064736f6c63430008140033",
  "linkReferences": {},
  "deployedLinkReferences": {}
}