{
	"_format": "hh-sol-artifact-1",
	"contractName": "Marketplace",
	"sourceName": "contracts/Marketplace.sol",
	"abi": [
		{
			"anonymous": false,
			"inputs": [
				{
					"indexed": false,
					"internalType": "address",
					"name": "buyer",
					"type": "address"
				},
				{
					"indexed": false,
					"internalType": "uint256",
					"name": "price",
					"type": "uint256"
				}
			],
			"name": "ItemSold",
			"type": "event"
		},
		{
			"inputs": [],
			"name": "getAllNFTs",
			"outputs": [
				{
					"components": [
						{
							"internalType": "uint256",
							"name": "itemId",
							"type": "uint256"
						},
						{
							"internalType": "uint256",
							"name": "tokenId",
							"type": "uint256"
						},
						{
							"internalType": "address",
							"name": "owner",
							"type": "address"
						},
						{
							"internalType": "address",
							"name": "nft",
							"type": "address"
						},
						{
							"internalType": "uint256",
							"name": "price",
							"type": "uint256"
						},
						{
							"internalType": "bool",
							"name": "isSold",
							"type": "bool"
						}
					],
					"internalType": "struct Marketplace.NftStructure[]",
					"name": "",
					"type": "tuple[]"
				}
			],
			"stateMutability": "view",
			"type": "function"
		},
		{
			"inputs": [
				{
					"internalType": "address",
					"name": "nft",
					"type": "address"
				},
				{
					"internalType": "uint256",
					"name": "tokenId",
					"type": "uint256"
				},
				{
					"internalType": "uint256",
					"name": "price",
					"type": "uint256"
				}
			],
			"name": "listItem",
			"outputs": [],
			"stateMutability": "nonpayable",
			"type": "function"
		},
		{
			"inputs": [
				{
					"internalType": "uint256",
					"name": "",
					"type": "uint256"
				}
			],
			"name": "nftCollection",
			"outputs": [
				{
					"internalType": "uint256",
					"name": "itemId",
					"type": "uint256"
				},
				{
					"internalType": "uint256",
					"name": "tokenId",
					"type": "uint256"
				},
				{
					"internalType": "address",
					"name": "owner",
					"type": "address"
				},
				{
					"internalType": "address",
					"name": "nft",
					"type": "address"
				},
				{
					"internalType": "uint256",
					"name": "price",
					"type": "uint256"
				},
				{
					"internalType": "bool",
					"name": "isSold",
					"type": "bool"
				}
			],
			"stateMutability": "view",
			"type": "function"
		},
		{
			"inputs": [
				{
					"internalType": "uint256",
					"name": "itemId",
					"type": "uint256"
				}
			],
			"name": "purchase",
			"outputs": [],
			"stateMutability": "payable",
			"type": "function"
		},
		{
			"inputs": [],
			"name": "totalNftsCount",
			"outputs": [
				{
					"internalType": "uint256",
					"name": "",
					"type": "uint256"
				}
			],
			"stateMutability": "view",
			"type": "function"
		}
	],
	"bytecode": "0x608060405234801561001057600080fd5b50611060806100206000396000f3fe60806040526004361061004a5760003560e01c806344345a121461004f5780637c711b271461007a57806389bfd38f146100bc578063e0391b09146100e5578063efef39a114610110575b600080fd5b34801561005b57600080fd5b5061006461012c565b60405161007191906109fe565b60405180910390f35b34801561008657600080fd5b506100a1600480360381019061009c9190610a4a565b610138565b6040516100b396959493929190610ad3565b60405180910390f35b3480156100c857600080fd5b506100e360048036038101906100de9190610b60565b6101d1565b005b3480156100f157600080fd5b506100fa61045a565b6040516101079190610d0a565b60405180910390f35b61012a60048036038101906101259190610a4a565b61059e565b005b60008080549050905090565b6000818154811061014857600080fd5b90600052602060002090600602016000915090508060000154908060010154908060020160009054906101000a900473ffffffffffffffffffffffffffffffffffffffff16908060030160009054906101000a900473ffffffffffffffffffffffffffffffffffffffff16908060040154908060050160009054906101000a900460ff16905086565b60008111610214576040517f08c379a000000000000000000000000000000000000000000000000000000000815260040161020b90610d89565b60405180910390fd5b3073ffffffffffffffffffffffffffffffffffffffff168373ffffffffffffffffffffffffffffffffffffffff1663081812fc846040518263ffffffff1660e01b815260040161026491906109fe565b602060405180830381865afa158015610281573d6000803e3d6000fd5b505050506040513d601f19601f820116820180604052508101906102a59190610dbe565b73ffffffffffffffffffffffffffffffffffffffff16146102fb576040517f08c379a00000000000000000000000000000000000000000000000000000000081526004016102f290610e37565b60405180910390fd5b60006040518060c0016040528060008054905081526020018481526020013373ffffffffffffffffffffffffffffffffffffffff1681526020018573ffffffffffffffffffffffffffffffffffffffff168152602001838152602001600015158152509080600181540180825580915050600190039060005260206000209060060201600090919091909150600082015181600001556020820151816001015560408201518160020160006101000a81548173ffffffffffffffffffffffffffffffffffffffff021916908373ffffffffffffffffffffffffffffffffffffffff16021790555060608201518160030160006101000a81548173ffffffffffffffffffffffffffffffffffffffff021916908373ffffffffffffffffffffffffffffffffffffffff1602179055506080820151816004015560a08201518160050160006101000a81548160ff0219169083151502179055505050505050565b60606000805480602002602001604051908101604052809291908181526020016000905b8282101561059557838290600052602060002090600602016040518060c001604052908160008201548152602001600182015481526020016002820160009054906101000a900473ffffffffffffffffffffffffffffffffffffffff1673ffffffffffffffffffffffffffffffffffffffff1673ffffffffffffffffffffffffffffffffffffffff1681526020016003820160009054906101000a900473ffffffffffffffffffffffffffffffffffffffff1673ffffffffffffffffffffffffffffffffffffffff1673ffffffffffffffffffffffffffffffffffffffff168152602001600482015481526020016005820160009054906101000a900460ff1615151515815250508152602001906001019061047e565b50505050905090565b806000805490501180156105b3575060008110155b6105f2576040517f08c379a00000000000000000000000000000000000000000000000000000000081526004016105e990610ea3565b60405180910390fd5b600080828154811061060757610606610ec3565b5b90600052602060002090600602016040518060c001604052908160008201548152602001600182015481526020016002820160009054906101000a900473ffffffffffffffffffffffffffffffffffffffff1673ffffffffffffffffffffffffffffffffffffffff1673ffffffffffffffffffffffffffffffffffffffff1681526020016003820160009054906101000a900473ffffffffffffffffffffffffffffffffffffffff1673ffffffffffffffffffffffffffffffffffffffff1673ffffffffffffffffffffffffffffffffffffffff168152602001600482015481526020016005820160009054906101000a900460ff1615151515815250509050348160800151111561074e576040517f08c379a000000000000000000000000000000000000000000000000000000000815260040161074590610f3e565b60405180910390fd5b600015158160a00151151514610799576040517f08c379a000000000000000000000000000000000000000000000000000000000815260040161079090610faa565b60405180910390fd5b806060015173ffffffffffffffffffffffffffffffffffffffff166323b872dd82604001513384602001516040518463ffffffff1660e01b81526004016107e293929190610fca565b600060405180830381600087803b1580156107fc57600080fd5b505af1158015610810573d6000803e3d6000fd5b5050505060008160400151905060018260a001901515908115158152505033826040019073ffffffffffffffffffffffffffffffffffffffff16908173ffffffffffffffffffffffffffffffffffffffff1681525050816000848154811061087b5761087a610ec3565b5b9060005260206000209060060201600082015181600001556020820151816001015560408201518160020160006101000a81548173ffffffffffffffffffffffffffffffffffffffff021916908373ffffffffffffffffffffffffffffffffffffffff16021790555060608201518160030160006101000a81548173ffffffffffffffffffffffffffffffffffffffff021916908373ffffffffffffffffffffffffffffffffffffffff1602179055506080820151816004015560a08201518160050160006101000a81548160ff0219169083151502179055509050508073ffffffffffffffffffffffffffffffffffffffff166108fc349081150290604051600060405180830381858888f1935050505015801561099e573d6000803e3d6000fd5b507fc8edef1fc414675e55c5a6ea7d9d6547df463b23dbdfc36ecaad361408c0894c826040015183608001516040516109d8929190611001565b60405180910390a1505050565b6000819050919050565b6109f8816109e5565b82525050565b6000602082019050610a1360008301846109ef565b92915050565b600080fd5b610a27816109e5565b8114610a3257600080fd5b50565b600081359050610a4481610a1e565b92915050565b600060208284031215610a6057610a5f610a19565b5b6000610a6e84828501610a35565b91505092915050565b600073ffffffffffffffffffffffffffffffffffffffff82169050919050565b6000610aa282610a77565b9050919050565b610ab281610a97565b82525050565b60008115159050919050565b610acd81610ab8565b82525050565b600060c082019050610ae860008301896109ef565b610af560208301886109ef565b610b026040830187610aa9565b610b0f6060830186610aa9565b610b1c60808301856109ef565b610b2960a0830184610ac4565b979650505050505050565b610b3d81610a97565b8114610b4857600080fd5b50565b600081359050610b5a81610b34565b92915050565b600080600060608486031215610b7957610b78610a19565b5b6000610b8786828701610b4b565b9350506020610b9886828701610a35565b9250506040610ba986828701610a35565b9150509250925092565b600081519050919050565b600082825260208201905092915050565b6000819050602082019050919050565b610be8816109e5565b82525050565b610bf781610a97565b82525050565b610c0681610ab8565b82525050565b60c082016000820151610c226000850182610bdf565b506020820151610c356020850182610bdf565b506040820151610c486040850182610bee565b506060820151610c5b6060850182610bee565b506080820151610c6e6080850182610bdf565b5060a0820151610c8160a0850182610bfd565b50505050565b6000610c938383610c0c565b60c08301905092915050565b6000602082019050919050565b6000610cb782610bb3565b610cc18185610bbe565b9350610ccc83610bcf565b8060005b83811015610cfd578151610ce48882610c87565b9750610cef83610c9f565b925050600181019050610cd0565b5085935050505092915050565b60006020820190508181036000830152610d248184610cac565b905092915050565b600082825260208201905092915050565b7f73686f6c642067726561746572207468656e2030000000000000000000000000600082015250565b6000610d73601483610d2c565b9150610d7e82610d3d565b602082019050919050565b60006020820190508181036000830152610da281610d66565b9050919050565b600081519050610db881610b34565b92915050565b600060208284031215610dd457610dd3610a19565b5b6000610de284828501610da9565b91505092915050565b7f46697273742073656e6420746865204e465420746f20436f6e74726163742e00600082015250565b6000610e21601f83610d2c565b9150610e2c82610deb565b602082019050919050565b60006020820190508181036000830152610e5081610e14565b9050919050565b7f54686973206974656d206e6f7420657869737473000000000000000000000000600082015250565b6000610e8d601483610d2c565b9150610e9882610e57565b602082019050919050565b60006020820190508181036000830152610ebc81610e80565b9050919050565b7f4e487b7100000000000000000000000000000000000000000000000000000000600052603260045260246000fd5b7f4e6f7420656e6f75676820616d6f756e7420746f207075726368617365000000600082015250565b6000610f28601d83610d2c565b9150610f3382610ef2565b602082019050919050565b60006020820190508181036000830152610f5781610f1b565b9050919050565b7f54686973206974656d20697320616c726561647920736f6c6400000000000000600082015250565b6000610f94601983610d2c565b9150610f9f82610f5e565b602082019050919050565b60006020820190508181036000830152610fc381610f87565b9050919050565b6000606082019050610fdf6000830186610aa9565b610fec6020830185610aa9565b610ff960408301846109ef565b949350505050565b60006040820190506110166000830185610aa9565b61102360208301846109ef565b939250505056fea26469706673582212205bab1289971b857ddb97101e154693db603d86cd6c866913c3c6aec2048ce75364736f6c63430008140033",
	"linkReferences": {},
	"deployedLinkReferences": {}
}