{
  "_format": "hh-sol-artifact-1",
  "contractName": "Marketplace",
  "sourceName": "contracts/Marketplace.sol",
  "abi": [
    {
      "inputs": [],
      "stateMutability": "nonpayable",
      "type": "constructor"
    },
    {
      "anonymous": false,
      "inputs": [
        {
          "indexed": false,
          "internalType": "address",
          "name": "item",
          "type": "address"
        },
        {
          "indexed": false,
          "internalType": "address",
          "name": "buyer",
          "type": "address"
        },
        {
          "indexed": false,
          "internalType": "address",
          "name": "seller",
          "type": "address"
        },
        {
          "indexed": false,
          "internalType": "uint256",
          "name": "price",
          "type": "uint256"
        }
      ],
      "name": "ItemSold",
      "type": "event"
    },
    {
      "inputs": [],
      "name": "currentNft",
      "outputs": [
        {
          "internalType": "uint256",
          "name": "",
          "type": "uint256"
        }
      ],
      "stateMutability": "view",
      "type": "function"
    },
    {
      "inputs": [
        {
          "internalType": "address",
          "name": "nft",
          "type": "address"
        },
        {
          "internalType": "uint256",
          "name": "tokenId",
          "type": "uint256"
        },
        {
          "internalType": "uint256",
          "name": "price",
          "type": "uint256"
        }
      ],
      "name": "listItem",
      "outputs": [],
      "stateMutability": "nonpayable",
      "type": "function"
    },
    {
      "inputs": [
        {
          "internalType": "uint256",
          "name": "",
          "type": "uint256"
        }
      ],
      "name": "nftCollection",
      "outputs": [
        {
          "internalType": "uint256",
          "name": "itemId",
          "type": "uint256"
        },
        {
          "internalType": "uint256",
          "name": "tokenId",
          "type": "uint256"
        },
        {
          "internalType": "address",
          "name": "seller",
          "type": "address"
        },
        {
          "internalType": "address",
          "name": "owner",
          "type": "address"
        },
        {
          "internalType": "address",
          "name": "nft",
          "type": "address"
        },
        {
          "internalType": "uint256",
          "name": "price",
          "type": "uint256"
        },
        {
          "internalType": "bool",
          "name": "isSold",
          "type": "bool"
        }
      ],
      "stateMutability": "view",
      "type": "function"
    },
    {
      "inputs": [],
      "name": "owner",
      "outputs": [
        {
          "internalType": "address",
          "name": "",
          "type": "address"
        }
      ],
      "stateMutability": "view",
      "type": "function"
    },
    {
      "inputs": [
        {
          "internalType": "uint256",
          "name": "itemId",
          "type": "uint256"
        }
      ],
      "name": "purchase",
      "outputs": [],
      "stateMutability": "payable",
      "type": "function"
    }
  ],
  "bytecode": "0x60a060405234801561001057600080fd5b503373ffffffffffffffffffffffffffffffffffffffff1660808173ffffffffffffffffffffffffffffffffffffffff1681525050608051610ded61006060003960006104c90152610ded6000f3fe60806040526004361061004a5760003560e01c80632ae81e351461004f5780637c711b271461007a57806389bfd38f146100bd5780638da5cb5b146100e6578063efef39a114610111575b600080fd5b34801561005b57600080fd5b5061006461012d565b60405161007191906108ee565b60405180910390f35b34801561008657600080fd5b506100a1600480360381019061009c919061093a565b610133565b6040516100b497969594939291906109c3565b60405180910390f35b3480156100c957600080fd5b506100e460048036038101906100df9190610a5e565b6101e2565b005b3480156100f257600080fd5b506100fb6104c7565b6040516101089190610ab1565b60405180910390f35b61012b6004803603810190610126919061093a565b6104eb565b005b60015481565b60006020528060005260406000206000915090508060000154908060010154908060020160009054906101000a900473ffffffffffffffffffffffffffffffffffffffff16908060030160009054906101000a900473ffffffffffffffffffffffffffffffffffffffff16908060040160009054906101000a900473ffffffffffffffffffffffffffffffffffffffff16908060050154908060060160009054906101000a900460ff16905087565b60008111610225576040517f08c379a000000000000000000000000000000000000000000000000000000000815260040161021c90610b29565b60405180910390fd5b3073ffffffffffffffffffffffffffffffffffffffff168373ffffffffffffffffffffffffffffffffffffffff1663081812fc846040518263ffffffff1660e01b815260040161027591906108ee565b602060405180830381865afa158015610292573d6000803e3d6000fd5b505050506040513d601f19601f820116820180604052508101906102b69190610b5e565b73ffffffffffffffffffffffffffffffffffffffff161461030c576040517f08c379a000000000000000000000000000000000000000000000000000000000815260040161030390610bd7565b60405180910390fd5b6001600081548092919060010191905055506040518060e0016040528060015481526020018381526020013373ffffffffffffffffffffffffffffffffffffffff1681526020013373ffffffffffffffffffffffffffffffffffffffff1681526020018473ffffffffffffffffffffffffffffffffffffffff168152602001828152602001600015158152506000806001548152602001908152602001600020600082015181600001556020820151816001015560408201518160020160006101000a81548173ffffffffffffffffffffffffffffffffffffffff021916908373ffffffffffffffffffffffffffffffffffffffff16021790555060608201518160030160006101000a81548173ffffffffffffffffffffffffffffffffffffffff021916908373ffffffffffffffffffffffffffffffffffffffff16021790555060808201518160040160006101000a81548173ffffffffffffffffffffffffffffffffffffffff021916908373ffffffffffffffffffffffffffffffffffffffff16021790555060a0820151816005015560c08201518160060160006101000a81548160ff021916908315150217905550905050505050565b7f000000000000000000000000000000000000000000000000000000000000000081565b60008060008381526020019081526020016000209050600073ffffffffffffffffffffffffffffffffffffffff168160040160009054906101000a900473ffffffffffffffffffffffffffffffffffffffff1673ffffffffffffffffffffffffffffffffffffffff1603610594576040517f08c379a000000000000000000000000000000000000000000000000000000000815260040161058b90610c43565b60405180910390fd5b34816005015411156105db576040517f08c379a00000000000000000000000000000000000000000000000000000000081526004016105d290610caf565b60405180910390fd5b600015158160060160009054906101000a900460ff16151514610633576040517f08c379a000000000000000000000000000000000000000000000000000000000815260040161062a90610d1b565b60405180910390fd5b8060040160009054906101000a900473ffffffffffffffffffffffffffffffffffffffff1673ffffffffffffffffffffffffffffffffffffffff166323b872dd8260020160009054906101000a900473ffffffffffffffffffffffffffffffffffffffff163384600101546040518463ffffffff1660e01b81526004016106bc93929190610d3b565b600060405180830381600087803b1580156106d657600080fd5b505af11580156106ea573d6000803e3d6000fd5b5050505060018160060160006101000a81548160ff0219169083151502179055508060030160009054906101000a900473ffffffffffffffffffffffffffffffffffffffff168160020160006101000a81548173ffffffffffffffffffffffffffffffffffffffff021916908373ffffffffffffffffffffffffffffffffffffffff160217905550338160030160006101000a81548173ffffffffffffffffffffffffffffffffffffffff021916908373ffffffffffffffffffffffffffffffffffffffff1602179055508060020160009054906101000a900473ffffffffffffffffffffffffffffffffffffffff1673ffffffffffffffffffffffffffffffffffffffff166108fc82600501549081150290604051600060405180830381858888f19350505050158015610823573d6000803e3d6000fd5b507f94784a3562c6a29b14faeace426c80b0d497d2cf0a82a2fe71adbab000546d008160040160009054906101000a900473ffffffffffffffffffffffffffffffffffffffff168260030160009054906101000a900473ffffffffffffffffffffffffffffffffffffffff168360020160009054906101000a900473ffffffffffffffffffffffffffffffffffffffff1684600501546040516108c99493929190610d72565b60405180910390a15050565b6000819050919050565b6108e8816108d5565b82525050565b600060208201905061090360008301846108df565b92915050565b600080fd5b610917816108d5565b811461092257600080fd5b50565b6000813590506109348161090e565b92915050565b6000602082840312156109505761094f610909565b5b600061095e84828501610925565b91505092915050565b600073ffffffffffffffffffffffffffffffffffffffff82169050919050565b600061099282610967565b9050919050565b6109a281610987565b82525050565b60008115159050919050565b6109bd816109a8565b82525050565b600060e0820190506109d8600083018a6108df565b6109e560208301896108df565b6109f26040830188610999565b6109ff6060830187610999565b610a0c6080830186610999565b610a1960a08301856108df565b610a2660c08301846109b4565b98975050505050505050565b610a3b81610987565b8114610a4657600080fd5b50565b600081359050610a5881610a32565b92915050565b600080600060608486031215610a7757610a76610909565b5b6000610a8586828701610a49565b9350506020610a9686828701610925565b9250506040610aa786828701610925565b9150509250925092565b6000602082019050610ac66000830184610999565b92915050565b600082825260208201905092915050565b7f73686f6c642067726561746572207468656e2030000000000000000000000000600082015250565b6000610b13601483610acc565b9150610b1e82610add565b602082019050919050565b60006020820190508181036000830152610b4281610b06565b9050919050565b600081519050610b5881610a32565b92915050565b600060208284031215610b7457610b73610909565b5b6000610b8284828501610b49565b91505092915050565b7f46697273742073656e6420746865204e465420746f20436f6e74726163742e00600082015250565b6000610bc1601f83610acc565b9150610bcc82610b8b565b602082019050919050565b60006020820190508181036000830152610bf081610bb4565b9050919050565b7f54686973206974656d206e6f7420657869737473000000000000000000000000600082015250565b6000610c2d601483610acc565b9150610c3882610bf7565b602082019050919050565b60006020820190508181036000830152610c5c81610c20565b9050919050565b7f4e6f7420656e6f75676820616d6f756e7420746f207075726368617365000000600082015250565b6000610c99601d83610acc565b9150610ca482610c63565b602082019050919050565b60006020820190508181036000830152610cc881610c8c565b9050919050565b7f54686973206974656d20697320616c726561647920736f6c6400000000000000600082015250565b6000610d05601983610acc565b9150610d1082610ccf565b602082019050919050565b60006020820190508181036000830152610d3481610cf8565b9050919050565b6000606082019050610d506000830186610999565b610d5d6020830185610999565b610d6a60408301846108df565b949350505050565b6000608082019050610d876000830187610999565b610d946020830186610999565b610da16040830185610999565b610dae60608301846108df565b9594505050505056fea26469706673582212206846d871978180eecb4791684bd39e2fd0dc357bf1b1af0c10c6910bd50d8d0864736f6c63430008140033",
  "linkReferences": {},
  "deployedLinkReferences": {}
}