{
  "_format": "hh-sol-artifact-1",
  "contractName": "MyToken",
  "sourceName": "contracts/Token.sol",
  "abi": [
    {
      "inputs": [
        {
          "internalType": "string",
          "name": "_name",
          "type": "string"
        },
        {
          "internalType": "string",
          "name": "_sign",
          "type": "string"
        }
      ],
      "stateMutability": "nonpayable",
      "type": "constructor"
    },
    {
      "inputs": [
        {
          "internalType": "address",
          "name": "sender",
          "type": "address"
        },
        {
          "internalType": "uint256",
          "name": "tokenId",
          "type": "uint256"
        },
        {
          "internalType": "address",
          "name": "owner",
          "type": "address"
        }
      ],
      "name": "ERC721IncorrectOwner",
      "type": "error"
    },
    {
      "inputs": [
        {
          "internalType": "address",
          "name": "operator",
          "type": "address"
        },
        {
          "internalType": "uint256",
          "name": "tokenId",
          "type": "uint256"
        }
      ],
      "name": "ERC721InsufficientApproval",
      "type": "error"
    },
    {
      "inputs": [
        {
          "internalType": "address",
          "name": "approver",
          "type": "address"
        }
      ],
      "name": "ERC721InvalidApprover",
      "type": "error"
    },
    {
      "inputs": [
        {
          "internalType": "address",
          "name": "operator",
          "type": "address"
        }
      ],
      "name": "ERC721InvalidOperator",
      "type": "error"
    },
    {
      "inputs": [
        {
          "internalType": "address",
          "name": "owner",
          "type": "address"
        }
      ],
      "name": "ERC721InvalidOwner",
      "type": "error"
    },
    {
      "inputs": [
        {
          "internalType": "address",
          "name": "receiver",
          "type": "address"
        }
      ],
      "name": "ERC721InvalidReceiver",
      "type": "error"
    },
    {
      "inputs": [
        {
          "internalType": "address",
          "name": "sender",
          "type": "address"
        }
      ],
      "name": "ERC721InvalidSender",
      "type": "error"
    },
    {
      "inputs": [
        {
          "internalType": "uint256",
          "name": "tokenId",
          "type": "uint256"
        }
      ],
      "name": "ERC721NonexistentToken",
      "type": "error"
    },
    {
      "anonymous": false,
      "inputs": [
        {
          "indexed": true,
          "internalType": "address",
          "name": "owner",
          "type": "address"
        },
        {
          "indexed": true,
          "internalType": "address",
          "name": "approved",
          "type": "address"
        },
        {
          "indexed": true,
          "internalType": "uint256",
          "name": "tokenId",
          "type": "uint256"
        }
      ],
      "name": "Approval",
      "type": "event"
    },
    {
      "anonymous": false,
      "inputs": [
        {
          "indexed": true,
          "internalType": "address",
          "name": "owner",
          "type": "address"
        },
        {
          "indexed": true,
          "internalType": "address",
          "name": "operator",
          "type": "address"
        },
        {
          "indexed": false,
          "internalType": "bool",
          "name": "approved",
          "type": "bool"
        }
      ],
      "name": "ApprovalForAll",
      "type": "event"
    },
    {
      "anonymous": false,
      "inputs": [
        {
          "indexed": false,
          "internalType": "uint256",
          "name": "_fromTokenId",
          "type": "uint256"
        },
        {
          "indexed": false,
          "internalType": "uint256",
          "name": "_toTokenId",
          "type": "uint256"
        }
      ],
      "name": "BatchMetadataUpdate",
      "type": "event"
    },
    {
      "anonymous": false,
      "inputs": [
        {
          "indexed": false,
          "internalType": "uint256",
          "name": "_tokenId",
          "type": "uint256"
        }
      ],
      "name": "MetadataUpdate",
      "type": "event"
    },
    {
      "anonymous": false,
      "inputs": [
        {
          "indexed": true,
          "internalType": "address",
          "name": "from",
          "type": "address"
        },
        {
          "indexed": true,
          "internalType": "address",
          "name": "to",
          "type": "address"
        },
        {
          "indexed": true,
          "internalType": "uint256",
          "name": "tokenId",
          "type": "uint256"
        }
      ],
      "name": "Transfer",
      "type": "event"
    },
    {
      "inputs": [],
      "name": "_nextTokenId",
      "outputs": [
        {
          "internalType": "uint256",
          "name": "",
          "type": "uint256"
        }
      ],
      "stateMutability": "view",
      "type": "function"
    },
    {
      "inputs": [
        {
          "internalType": "address",
          "name": "to",
          "type": "address"
        },
        {
          "internalType": "uint256",
          "name": "tokenId",
          "type": "uint256"
        }
      ],
      "name": "approve",
      "outputs": [],
      "stateMutability": "nonpayable",
      "type": "function"
    },
    {
      "inputs": [
        {
          "internalType": "address",
          "name": "owner",
          "type": "address"
        }
      ],
      "name": "balanceOf",
      "outputs": [
        {
          "internalType": "uint256",
          "name": "",
          "type": "uint256"
        }
      ],
      "stateMutability": "view",
      "type": "function"
    },
    {
      "inputs": [
        {
          "internalType": "uint256",
          "name": "tokenId",
          "type": "uint256"
        }
      ],
      "name": "getApproved",
      "outputs": [
        {
          "internalType": "address",
          "name": "",
          "type": "address"
        }
      ],
      "stateMutability": "view",
      "type": "function"
    },
    {
      "inputs": [
        {
          "internalType": "address",
          "name": "owner",
          "type": "address"
        },
        {
          "internalType": "address",
          "name": "operator",
          "type": "address"
        }
      ],
      "name": "isApprovedForAll",
      "outputs": [
        {
          "internalType": "bool",
          "name": "",
          "type": "bool"
        }
      ],
      "stateMutability": "view",
      "type": "function"
    },
    {
      "inputs": [
        {
          "internalType": "string",
          "name": "uri",
          "type": "string"
        }
      ],
      "name": "mint",
      "outputs": [
        {
          "internalType": "uint256",
          "name": "",
          "type": "uint256"
        }
      ],
      "stateMutability": "nonpayable",
      "type": "function"
    },
    {
      "inputs": [],
      "name": "name",
      "outputs": [
        {
          "internalType": "string",
          "name": "",
          "type": "string"
        }
      ],
      "stateMutability": "view",
      "type": "function"
    },
    {
      "inputs": [
        {
          "internalType": "uint256",
          "name": "tokenId",
          "type": "uint256"
        }
      ],
      "name": "ownerOf",
      "outputs": [
        {
          "internalType": "address",
          "name": "",
          "type": "address"
        }
      ],
      "stateMutability": "view",
      "type": "function"
    },
    {
      "inputs": [
        {
          "internalType": "address",
          "name": "from",
          "type": "address"
        },
        {
          "internalType": "address",
          "name": "to",
          "type": "address"
        },
        {
          "internalType": "uint256",
          "name": "tokenId",
          "type": "uint256"
        }
      ],
      "name": "safeTransferFrom",
      "outputs": [],
      "stateMutability": "nonpayable",
      "type": "function"
    },
    {
      "inputs": [
        {
          "internalType": "address",
          "name": "from",
          "type": "address"
        },
        {
          "internalType": "address",
          "name": "to",
          "type": "address"
        },
        {
          "internalType": "uint256",
          "name": "tokenId",
          "type": "uint256"
        },
        {
          "internalType": "bytes",
          "name": "data",
          "type": "bytes"
        }
      ],
      "name": "safeTransferFrom",
      "outputs": [],
      "stateMutability": "nonpayable",
      "type": "function"
    },
    {
      "inputs": [
        {
          "internalType": "address",
          "name": "operator",
          "type": "address"
        },
        {
          "internalType": "bool",
          "name": "approved",
          "type": "bool"
        }
      ],
      "name": "setApprovalForAll",
      "outputs": [],
      "stateMutability": "nonpayable",
      "type": "function"
    },
    {
      "inputs": [
        {
          "internalType": "bytes4",
          "name": "interfaceId",
          "type": "bytes4"
        }
      ],
      "name": "supportsInterface",
      "outputs": [
        {
          "internalType": "bool",
          "name": "",
          "type": "bool"
        }
      ],
      "stateMutability": "view",
      "type": "function"
    },
    {
      "inputs": [],
      "name": "symbol",
      "outputs": [
        {
          "internalType": "string",
          "name": "",
          "type": "string"
        }
      ],
      "stateMutability": "view",
      "type": "function"
    },
    {
      "inputs": [
        {
          "internalType": "uint256",
          "name": "tokenId",
          "type": "uint256"
        }
      ],
      "name": "tokenURI",
      "outputs": [
        {
          "internalType": "string",
          "name": "",
          "type": "string"
        }
      ],
      "stateMutability": "view",
      "type": "function"
    },
    {
      "inputs": [
        {
          "internalType": "address",
          "name": "from",
          "type": "address"
        },
        {
          "internalType": "address",
          "name": "to",
          "type": "address"
        },
        {
          "internalType": "uint256",
          "name": "tokenId",
          "type": "uint256"
        }
      ],
      "name": "transferFrom",
      "outputs": [],
      "stateMutability": "nonpayable",
      "type": "function"
    }
  ],
  "bytecode": "0x60806040523480156200001157600080fd5b50604051620029c0380380620029c08339818101604052810190620000379190620001fa565b818181600090816200004a9190620004ca565b5080600190816200005c9190620004ca565b5050505050620005b1565b6000604051905090565b600080fd5b600080fd5b600080fd5b600080fd5b6000601f19601f8301169050919050565b7f4e487b7100000000000000000000000000000000000000000000000000000000600052604160045260246000fd5b620000d08262000085565b810181811067ffffffffffffffff82111715620000f257620000f162000096565b5b80604052505050565b60006200010762000067565b9050620001158282620000c5565b919050565b600067ffffffffffffffff82111562000138576200013762000096565b5b620001438262000085565b9050602081019050919050565b60005b838110156200017057808201518184015260208101905062000153565b60008484015250505050565b6000620001936200018d846200011a565b620000fb565b905082815260208101848484011115620001b257620001b162000080565b5b620001bf84828562000150565b509392505050565b600082601f830112620001df57620001de6200007b565b5b8151620001f18482602086016200017c565b91505092915050565b6000806040838503121562000214576200021362000071565b5b600083015167ffffffffffffffff81111562000235576200023462000076565b5b6200024385828601620001c7565b925050602083015167ffffffffffffffff81111562000267576200026662000076565b5b6200027585828601620001c7565b9150509250929050565b600081519050919050565b7f4e487b7100000000000000000000000000000000000000000000000000000000600052602260045260246000fd5b60006002820490506001821680620002d257607f821691505b602082108103620002e857620002e76200028a565b5b50919050565b60008190508160005260206000209050919050565b60006020601f8301049050919050565b600082821b905092915050565b600060088302620003527fffffffffffffffffffffffffffffffffffffffffffffffffffffffffffffffff8262000313565b6200035e868362000313565b95508019841693508086168417925050509392505050565b6000819050919050565b6000819050919050565b6000620003ab620003a56200039f8462000376565b62000380565b62000376565b9050919050565b6000819050919050565b620003c7836200038a565b620003df620003d682620003b2565b84845462000320565b825550505050565b600090565b620003f6620003e7565b62000403818484620003bc565b505050565b5b818110156200042b576200041f600082620003ec565b60018101905062000409565b5050565b601f8211156200047a576200044481620002ee565b6200044f8462000303565b810160208510156200045f578190505b620004776200046e8562000303565b83018262000408565b50505b505050565b600082821c905092915050565b60006200049f600019846008026200047f565b1980831691505092915050565b6000620004ba83836200048c565b9150826002028217905092915050565b620004d5826200027f565b67ffffffffffffffff811115620004f157620004f062000096565b5b620004fd8254620002b9565b6200050a8282856200042f565b600060209050601f8311600181146200054257600084156200052d578287015190505b620005398582620004ac565b865550620005a9565b601f1984166200055286620002ee565b60005b828110156200057c5784890151825560018201915060208501945060208101905062000555565b868310156200059c578489015162000598601f8916826200048c565b8355505b6001600288020188555050505b505050505050565b6123ff80620005c16000396000f3fe608060405234801561001057600080fd5b50600436106100f55760003560e01c80636352211e11610097578063b88d4fde11610066578063b88d4fde14610284578063c87b56dd146102a0578063d85d3d27146102d0578063e985e9c514610300576100f5565b80636352211e146101ea57806370a082311461021a57806395d89b411461024a578063a22cb46514610268576100f5565b8063095ea7b3116100d3578063095ea7b31461017857806323b872dd1461019457806342842e0e146101b05780634a60f620146101cc576100f5565b806301ffc9a7146100fa57806306fdde031461012a578063081812fc14610148575b600080fd5b610114600480360381019061010f919061186a565b610330565b60405161012191906118b2565b60405180910390f35b610132610342565b60405161013f919061195d565b60405180910390f35b610162600480360381019061015d91906119b5565b6103d4565b60405161016f9190611a23565b60405180910390f35b610192600480360381019061018d9190611a6a565b6103f0565b005b6101ae60048036038101906101a99190611aaa565b610406565b005b6101ca60048036038101906101c59190611aaa565b610508565b005b6101d4610528565b6040516101e19190611b0c565b60405180910390f35b61020460048036038101906101ff91906119b5565b61052e565b6040516102119190611a23565b60405180910390f35b610234600480360381019061022f9190611b27565b610540565b6040516102419190611b0c565b60405180910390f35b6102526105fa565b60405161025f919061195d565b60405180910390f35b610282600480360381019061027d9190611b80565b61068c565b005b61029e60048036038101906102999190611cf5565b6106a2565b005b6102ba60048036038101906102b591906119b5565b6106bf565b6040516102c7919061195d565b60405180910390f35b6102ea60048036038101906102e59190611e19565b6106d1565b6040516102f79190611b0c565b60405180910390f35b61031a60048036038101906103159190611e62565b61070e565b60405161032791906118b2565b60405180910390f35b600061033b826107a2565b9050919050565b60606000805461035190611ed1565b80601f016020809104026020016040519081016040528092919081815260200182805461037d90611ed1565b80156103ca5780601f1061039f576101008083540402835291602001916103ca565b820191906000526020600020905b8154815290600101906020018083116103ad57829003601f168201915b5050505050905090565b60006103df82610803565b506103e98261088b565b9050919050565b61040282826103fd6108c8565b6108d0565b5050565b600073ffffffffffffffffffffffffffffffffffffffff168273ffffffffffffffffffffffffffffffffffffffff16036104785760006040517f64a0ae9200000000000000000000000000000000000000000000000000000000815260040161046f9190611a23565b60405180910390fd5b600061048c83836104876108c8565b6108e2565b90508373ffffffffffffffffffffffffffffffffffffffff168173ffffffffffffffffffffffffffffffffffffffff1614610502578382826040517f64283d7b0000000000000000000000000000000000000000000000000000000081526004016104f993929190611f02565b60405180910390fd5b50505050565b610523838383604051806020016040528060008152506106a2565b505050565b60075481565b600061053982610803565b9050919050565b60008073ffffffffffffffffffffffffffffffffffffffff168273ffffffffffffffffffffffffffffffffffffffff16036105b35760006040517f89c62b640000000000000000000000000000000000000000000000000000000081526004016105aa9190611a23565b60405180910390fd5b600360008373ffffffffffffffffffffffffffffffffffffffff1673ffffffffffffffffffffffffffffffffffffffff168152602001908152602001600020549050919050565b60606001805461060990611ed1565b80601f016020809104026020016040519081016040528092919081815260200182805461063590611ed1565b80156106825780601f1061065757610100808354040283529160200191610682565b820191906000526020600020905b81548152906001019060200180831161066557829003601f168201915b5050505050905090565b61069e6106976108c8565b8383610afc565b5050565b6106ad848484610406565b6106b984848484610c6b565b50505050565b60606106ca82610e22565b9050919050565b60008060075490506106e33382610f35565b6106ed818461102e565b6007600081548092919061070090611f68565b919050555080915050919050565b6000600560008473ffffffffffffffffffffffffffffffffffffffff1673ffffffffffffffffffffffffffffffffffffffff16815260200190815260200160002060008373ffffffffffffffffffffffffffffffffffffffff1673ffffffffffffffffffffffffffffffffffffffff16815260200190815260200160002060009054906101000a900460ff16905092915050565b6000634906490660e01b7bffffffffffffffffffffffffffffffffffffffffffffffffffffffff1916827bffffffffffffffffffffffffffffffffffffffffffffffffffffffff191614806107fc57506107fb8261108a565b5b9050919050565b60008061080f8361116c565b9050600073ffffffffffffffffffffffffffffffffffffffff168173ffffffffffffffffffffffffffffffffffffffff160361088257826040517f7e2732890000000000000000000000000000000000000000000000000000000081526004016108799190611b0c565b60405180910390fd5b80915050919050565b60006004600083815260200190815260200160002060009054906101000a900473ffffffffffffffffffffffffffffffffffffffff169050919050565b600033905090565b6108dd83838360016111a9565b505050565b6000806108ee8461116c565b9050600073ffffffffffffffffffffffffffffffffffffffff168373ffffffffffffffffffffffffffffffffffffffff16146109305761092f81848661136e565b5b600073ffffffffffffffffffffffffffffffffffffffff168173ffffffffffffffffffffffffffffffffffffffff16146109c1576109726000856000806111a9565b6001600360008373ffffffffffffffffffffffffffffffffffffffff1673ffffffffffffffffffffffffffffffffffffffff168152602001908152602001600020600082825403925050819055505b600073ffffffffffffffffffffffffffffffffffffffff168573ffffffffffffffffffffffffffffffffffffffff1614610a44576001600360008773ffffffffffffffffffffffffffffffffffffffff1673ffffffffffffffffffffffffffffffffffffffff168152602001908152602001600020600082825401925050819055505b846002600086815260200190815260200160002060006101000a81548173ffffffffffffffffffffffffffffffffffffffff021916908373ffffffffffffffffffffffffffffffffffffffff160217905550838573ffffffffffffffffffffffffffffffffffffffff168273ffffffffffffffffffffffffffffffffffffffff167fddf252ad1be2c89b69c2b068fc378daa952ba7f163c4a11628f55a4df523b3ef60405160405180910390a4809150509392505050565b600073ffffffffffffffffffffffffffffffffffffffff168273ffffffffffffffffffffffffffffffffffffffff1603610b6d57816040517f5b08ba18000000000000000000000000000000000000000000000000000000008152600401610b649190611a23565b60405180910390fd5b80600560008573ffffffffffffffffffffffffffffffffffffffff1673ffffffffffffffffffffffffffffffffffffffff16815260200190815260200160002060008473ffffffffffffffffffffffffffffffffffffffff1673ffffffffffffffffffffffffffffffffffffffff16815260200190815260200160002060006101000a81548160ff0219169083151502179055508173ffffffffffffffffffffffffffffffffffffffff168373ffffffffffffffffffffffffffffffffffffffff167f17307eab39ab6107e8899845ad3d59bd9653f200f220920489ca2b5937696c3183604051610c5e91906118b2565b60405180910390a3505050565b60008373ffffffffffffffffffffffffffffffffffffffff163b1115610e1c578273ffffffffffffffffffffffffffffffffffffffff1663150b7a02610caf6108c8565b8685856040518563ffffffff1660e01b8152600401610cd19493929190612005565b6020604051808303816000875af1925050508015610d0d57506040513d601f19601f82011682018060405250810190610d0a9190612066565b60015b610d91573d8060008114610d3d576040519150601f19603f3d011682016040523d82523d6000602084013e610d42565b606091505b506000815103610d8957836040517f64a0ae92000000000000000000000000000000000000000000000000000000008152600401610d809190611a23565b60405180910390fd5b805181602001fd5b63150b7a0260e01b7bffffffffffffffffffffffffffffffffffffffffffffffffffffffff1916817bffffffffffffffffffffffffffffffffffffffffffffffffffffffff191614610e1a57836040517f64a0ae92000000000000000000000000000000000000000000000000000000008152600401610e119190611a23565b60405180910390fd5b505b50505050565b6060610e2d82610803565b506000600660008481526020019081526020016000208054610e4e90611ed1565b80601f0160208091040260200160405190810160405280929190818152602001828054610e7a90611ed1565b8015610ec75780601f10610e9c57610100808354040283529160200191610ec7565b820191906000526020600020905b815481529060010190602001808311610eaa57829003601f168201915b505050505090506000610ed8611432565b90506000815103610eed578192505050610f30565b600082511115610f22578082604051602001610f0a9291906120cf565b60405160208183030381529060405292505050610f30565b610f2b84611449565b925050505b919050565b600073ffffffffffffffffffffffffffffffffffffffff168273ffffffffffffffffffffffffffffffffffffffff1603610fa75760006040517f64a0ae92000000000000000000000000000000000000000000000000000000008152600401610f9e9190611a23565b60405180910390fd5b6000610fb5838360006108e2565b9050600073ffffffffffffffffffffffffffffffffffffffff168173ffffffffffffffffffffffffffffffffffffffff16146110295760006040517f73c6ac6e0000000000000000000000000000000000000000000000000000000081526004016110209190611a23565b60405180910390fd5b505050565b8060066000848152602001908152602001600020908161104e919061229f565b507ff8e1a15aba9398e019f0b49df1a4fde98ee17ae345cb5f6b5e2c27f5033e8ce78260405161107e9190611b0c565b60405180910390a15050565b60007f80ac58cd000000000000000000000000000000000000000000000000000000007bffffffffffffffffffffffffffffffffffffffffffffffffffffffff1916827bffffffffffffffffffffffffffffffffffffffffffffffffffffffff1916148061115557507f5b5e139f000000000000000000000000000000000000000000000000000000007bffffffffffffffffffffffffffffffffffffffffffffffffffffffff1916827bffffffffffffffffffffffffffffffffffffffffffffffffffffffff1916145b806111655750611164826114b2565b5b9050919050565b60006002600083815260200190815260200160002060009054906101000a900473ffffffffffffffffffffffffffffffffffffffff169050919050565b80806111e25750600073ffffffffffffffffffffffffffffffffffffffff168273ffffffffffffffffffffffffffffffffffffffff1614155b156113165760006111f284610803565b9050600073ffffffffffffffffffffffffffffffffffffffff168373ffffffffffffffffffffffffffffffffffffffff161415801561125d57508273ffffffffffffffffffffffffffffffffffffffff168173ffffffffffffffffffffffffffffffffffffffff1614155b8015611270575061126e818461070e565b155b156112b257826040517fa9fbf51f0000000000000000000000000000000000000000000000000000000081526004016112a99190611a23565b60405180910390fd5b811561131457838573ffffffffffffffffffffffffffffffffffffffff168273ffffffffffffffffffffffffffffffffffffffff167f8c5be1e5ebec7d5bd14f71427d1e84f3dd0314c0f7b2291e5b200ac8c7c3b92560405160405180910390a45b505b836004600085815260200190815260200160002060006101000a81548173ffffffffffffffffffffffffffffffffffffffff021916908373ffffffffffffffffffffffffffffffffffffffff16021790555050505050565b61137983838361151c565b61142d57600073ffffffffffffffffffffffffffffffffffffffff168373ffffffffffffffffffffffffffffffffffffffff16036113ee57806040517f7e2732890000000000000000000000000000000000000000000000000000000081526004016113e59190611b0c565b60405180910390fd5b81816040517f177e802f000000000000000000000000000000000000000000000000000000008152600401611424929190612371565b60405180910390fd5b505050565b606060405180602001604052806000815250905090565b606061145482610803565b50600061145f611432565b9050600081511161147f57604051806020016040528060008152506114aa565b80611489846115dd565b60405160200161149a9291906120cf565b6040516020818303038152906040525b915050919050565b60007f01ffc9a7000000000000000000000000000000000000000000000000000000007bffffffffffffffffffffffffffffffffffffffffffffffffffffffff1916827bffffffffffffffffffffffffffffffffffffffffffffffffffffffff1916149050919050565b60008073ffffffffffffffffffffffffffffffffffffffff168373ffffffffffffffffffffffffffffffffffffffff16141580156115d457508273ffffffffffffffffffffffffffffffffffffffff168473ffffffffffffffffffffffffffffffffffffffff1614806115955750611594848461070e565b5b806115d357508273ffffffffffffffffffffffffffffffffffffffff166115bb8361088b565b73ffffffffffffffffffffffffffffffffffffffff16145b5b90509392505050565b6060600060016115ec846116ab565b01905060008167ffffffffffffffff81111561160b5761160a611bca565b5b6040519080825280601f01601f19166020018201604052801561163d5781602001600182028036833780820191505090505b509050600082602001820190505b6001156116a0578080600190039150507f3031323334353637383961626364656600000000000000000000000000000000600a86061a8153600a85816116945761169361239a565b5b0494506000850361164b575b819350505050919050565b600080600090507a184f03e93ff9f4daa797ed6e38ed64bf6a1f0100000000000000008310611709577a184f03e93ff9f4daa797ed6e38ed64bf6a1f01000000000000000083816116ff576116fe61239a565b5b0492506040810190505b6d04ee2d6d415b85acef81000000008310611746576d04ee2d6d415b85acef8100000000838161173c5761173b61239a565b5b0492506020810190505b662386f26fc10000831061177557662386f26fc10000838161176b5761176a61239a565b5b0492506010810190505b6305f5e100831061179e576305f5e10083816117945761179361239a565b5b0492506008810190505b61271083106117c35761271083816117b9576117b861239a565b5b0492506004810190505b606483106117e657606483816117dc576117db61239a565b5b0492506002810190505b600a83106117f5576001810190505b80915050919050565b6000604051905090565b600080fd5b600080fd5b60007fffffffff0000000000000000000000000000000000000000000000000000000082169050919050565b61184781611812565b811461185257600080fd5b50565b6000813590506118648161183e565b92915050565b6000602082840312156118805761187f611808565b5b600061188e84828501611855565b91505092915050565b60008115159050919050565b6118ac81611897565b82525050565b60006020820190506118c760008301846118a3565b92915050565b600081519050919050565b600082825260208201905092915050565b60005b838110156119075780820151818401526020810190506118ec565b60008484015250505050565b6000601f19601f8301169050919050565b600061192f826118cd565b61193981856118d8565b93506119498185602086016118e9565b61195281611913565b840191505092915050565b600060208201905081810360008301526119778184611924565b905092915050565b6000819050919050565b6119928161197f565b811461199d57600080fd5b50565b6000813590506119af81611989565b92915050565b6000602082840312156119cb576119ca611808565b5b60006119d9848285016119a0565b91505092915050565b600073ffffffffffffffffffffffffffffffffffffffff82169050919050565b6000611a0d826119e2565b9050919050565b611a1d81611a02565b82525050565b6000602082019050611a386000830184611a14565b92915050565b611a4781611a02565b8114611a5257600080fd5b50565b600081359050611a6481611a3e565b92915050565b60008060408385031215611a8157611a80611808565b5b6000611a8f85828601611a55565b9250506020611aa0858286016119a0565b9150509250929050565b600080600060608486031215611ac357611ac2611808565b5b6000611ad186828701611a55565b9350506020611ae286828701611a55565b9250506040611af3868287016119a0565b9150509250925092565b611b068161197f565b82525050565b6000602082019050611b216000830184611afd565b92915050565b600060208284031215611b3d57611b3c611808565b5b6000611b4b84828501611a55565b91505092915050565b611b5d81611897565b8114611b6857600080fd5b50565b600081359050611b7a81611b54565b92915050565b60008060408385031215611b9757611b96611808565b5b6000611ba585828601611a55565b9250506020611bb685828601611b6b565b9150509250929050565b600080fd5b600080fd5b7f4e487b7100000000000000000000000000000000000000000000000000000000600052604160045260246000fd5b611c0282611913565b810181811067ffffffffffffffff82111715611c2157611c20611bca565b5b80604052505050565b6000611c346117fe565b9050611c408282611bf9565b919050565b600067ffffffffffffffff821115611c6057611c5f611bca565b5b611c6982611913565b9050602081019050919050565b82818337600083830152505050565b6000611c98611c9384611c45565b611c2a565b905082815260208101848484011115611cb457611cb3611bc5565b5b611cbf848285611c76565b509392505050565b600082601f830112611cdc57611cdb611bc0565b5b8135611cec848260208601611c85565b91505092915050565b60008060008060808587031215611d0f57611d0e611808565b5b6000611d1d87828801611a55565b9450506020611d2e87828801611a55565b9350506040611d3f878288016119a0565b925050606085013567ffffffffffffffff811115611d6057611d5f61180d565b5b611d6c87828801611cc7565b91505092959194509250565b600067ffffffffffffffff821115611d9357611d92611bca565b5b611d9c82611913565b9050602081019050919050565b6000611dbc611db784611d78565b611c2a565b905082815260208101848484011115611dd857611dd7611bc5565b5b611de3848285611c76565b509392505050565b600082601f830112611e0057611dff611bc0565b5b8135611e10848260208601611da9565b91505092915050565b600060208284031215611e2f57611e2e611808565b5b600082013567ffffffffffffffff811115611e4d57611e4c61180d565b5b611e5984828501611deb565b91505092915050565b60008060408385031215611e7957611e78611808565b5b6000611e8785828601611a55565b9250506020611e9885828601611a55565b9150509250929050565b7f4e487b7100000000000000000000000000000000000000000000000000000000600052602260045260246000fd5b60006002820490506001821680611ee957607f821691505b602082108103611efc57611efb611ea2565b5b50919050565b6000606082019050611f176000830186611a14565b611f246020830185611afd565b611f316040830184611a14565b949350505050565b7f4e487b7100000000000000000000000000000000000000000000000000000000600052601160045260246000fd5b6000611f738261197f565b91507fffffffffffffffffffffffffffffffffffffffffffffffffffffffffffffffff8203611fa557611fa4611f39565b5b600182019050919050565b600081519050919050565b600082825260208201905092915050565b6000611fd782611fb0565b611fe18185611fbb565b9350611ff18185602086016118e9565b611ffa81611913565b840191505092915050565b600060808201905061201a6000830187611a14565b6120276020830186611a14565b6120346040830185611afd565b81810360608301526120468184611fcc565b905095945050505050565b6000815190506120608161183e565b92915050565b60006020828403121561207c5761207b611808565b5b600061208a84828501612051565b91505092915050565b600081905092915050565b60006120a9826118cd565b6120b38185612093565b93506120c38185602086016118e9565b80840191505092915050565b60006120db828561209e565b91506120e7828461209e565b91508190509392505050565b60008190508160005260206000209050919050565b60006020601f8301049050919050565b600082821b905092915050565b6000600883026121557fffffffffffffffffffffffffffffffffffffffffffffffffffffffffffffffff82612118565b61215f8683612118565b95508019841693508086168417925050509392505050565b6000819050919050565b600061219c6121976121928461197f565b612177565b61197f565b9050919050565b6000819050919050565b6121b683612181565b6121ca6121c2826121a3565b848454612125565b825550505050565b600090565b6121df6121d2565b6121ea8184846121ad565b505050565b5b8181101561220e576122036000826121d7565b6001810190506121f0565b5050565b601f82111561225357612224816120f3565b61222d84612108565b8101602085101561223c578190505b61225061224885612108565b8301826121ef565b50505b505050565b600082821c905092915050565b600061227660001984600802612258565b1980831691505092915050565b600061228f8383612265565b9150826002028217905092915050565b6122a8826118cd565b67ffffffffffffffff8111156122c1576122c0611bca565b5b6122cb8254611ed1565b6122d6828285612212565b600060209050601f83116001811461230957600084156122f7578287015190505b6123018582612283565b865550612369565b601f198416612317866120f3565b60005b8281101561233f5784890151825560018201915060208501945060208101905061231a565b8683101561235c5784890151612358601f891682612265565b8355505b6001600288020188555050505b505050505050565b60006040820190506123866000830185611a14565b6123936020830184611afd565b9392505050565b7f4e487b7100000000000000000000000000000000000000000000000000000000600052601260045260246000fdfea2646970667358221220b848d2c8f7aed2c92d21c60a38a430120d1223355da781e5e35f6b63e34d463264736f6c63430008140033",
  "linkReferences": {},
  "deployedLinkReferences": {}
}